:020000040800F2
:1000000000040020910C0008910D0008910D0008DB
:10001000910D0008910D0008910D0008910D000848
:10002000910D0008910D0008910D0008B10D000818
:10003000910D0008910D0008910D0008810E000837
:10004000910D0008910D0008910D0008910D000818
:10005000910D0008910D0008910D0008910D000808
:10006000910D0008910D0008910D0008511B00082A
:10007000811B0008B11B0008E11B0008111C0008CF
:10008000411C0008711C000821200008910D000887
:10009000910D0008910D0008910D0008910D0008C8
:1000A000910D0008910D0008910D0008910D0008B8
:1000B000910D0008910D0008910D0008910D0008A8
:1000C000910D0008910D0008910D0008910D000898
:1000D000910D0008910D0008910D0008910D000888
:1000E000910D0008910D0008910D0008910D000878
:1000F000910D0008910D0008910D0008A11C000849
:10010000910D0008910D0008910D0008910D000857
:10011000910D0008910D0008910D0008910D000847
:10012000D11C0008011D0008311D0008611D0008D8
:10013000911D0008910D0008910D0008910D000817
:10014000910D0008910D0008910D0008912E0008F6
:10015000C11D0008F11D0008211E0008910D0008B6
:10016000910D0008910D0008910D0008910D0008F7
:10017000910D0008910D0008910D0008910D0008E7
:10018000910D0008910D0008910D0008910D0008D7
:10019000910D0008910D0008910D0008910D0008C7
:0C01A000910D0008910D0008910D000861
:1001B0002DE9F047664E674CDFF8B09101F0B0F9D9
:1001C00000F0CEFE326D6449936B23F400239363F9
:1001D00000254FF47A700D7001F01AF95F4930462E
:1001E00001F0F6F9326D936B43F4002393634FF4FF
:1001F0007A7001F00DF92A46FE21594802F0F8F80C
:10020000A04649E022F0600242F01000042B00F00A
:100210001F0159D100F07D0098F9022040F0010043
:1002200088F8030022F02002092B22F0300257D177
:1002300042F0400202F07F02A270284600F0DAF994
:100240000022484B06460F4600F04AFA03F008F831
:100250003DA3D3E9002300F043FA00F0E1FC0022C3
:10026000414B1FFA80FA39463046A4F806A000F048
:1002700037FA02F0F5FF34A3D3E9002300F030FA97
:1002800000F0CEFC142283B23148A4F80AA02381E6
:10029000A381627002F044FF0135ADB2322001F05B
:1002A000B7F8A9FB05239B0803EB430203EB82038A
:1002B000EB1A9BB294F90320002BA3D0012B18D189
:1002C00002F02F0141F02001052B01F07E0116D133
:1002D00098F9022041F0020188F8031022F0300260
:1002E0000A2B22F05002A5D162F07F0288F802208A
:1002F000A3E7022B0FD102F04E0242F0400121F0A1
:100300000201062BE17011D198F9022022F050026F
:1003100042F020028EE7032B22F070007FF476AFCC
:1003200022F0730262F07F0288F8032094F9021031
:10033000072B21F020027FF477AF21F0600242F01A
:10034000100277E7AFF3008000000000C0FFDF403D
:10035000A80A0020000800209C0C0020204900086A
:10036000000002400000E03F0000D03F4FECC44ED0
:1003700081F0004102E000BF83F0004330B54FEA56
:1003800041044FEA430594EA050F08BF90EA020FC3
:100390001FBF54EA000C55EA020C7FEA645C7FEA56
:1003A000655C00F0E2804FEA5454D4EB5555B8BF79
:1003B0006D420CDD2C4480EA020281EA030382EAEA
:1003C000000083EA010180EA020281EA0303362D7C
:1003D00088BF30BD11F0004F4FEA01314FF4801C4F
:1003E0004CEA113102D0404261EB410113F0004F61
:1003F0004FEA03334CEA133302D0524263EB430318
:1004000094EA050F00F0A780A4F10104D5F1200EB5
:100410000DDB02FA0EFC22FA05F2801841F1000110
:1004200003FA0EF2801843FA05F359410EE0A5F1E4
:1004300020050EF1200E012A03FA0EFC28BF4CF015
:10044000020C43FA05F3C01851EBE37101F00045CB
:1004500007D54FF0000EDCF1000C7EEB00006EEBD8
:100460000101B1F5801F1BD3B1F5001F0CD3490862
:100470005FEA30004FEA3C0C04F101044FEA4452B9
:1004800012F5800F80F09A80BCF1004F08BF5FEA40
:10049000500C50F1000041EB045141EA050130BD20
:1004A0005FEA4C0C404141EB010111F4801FA4F1C3
:1004B0000104E9D191F0000F04BF01460020B1FA18
:1004C00081F308BF2033A3F10B03B3F120020CDA50
:1004D0000C3208DD02F1140CC2F10C0201FA0CF02E
:1004E00021FA02F10CE002F11402D8BFC2F1200C93
:1004F00001FA02F120FA0CFCDCBF41EA0C01904049
:10050000E41AA2BF01EB0451294330BD6FEA040491
:100510001F3C1CDA0C340EDC04F11404C4F120027C
:1005200020FA04F001FA02F340EA030021FA04F38E
:1005300045EA030130BDC4F10C04C4F1200220FAE5
:1005400002F001FA04F340EA0300294630BD21FA23
:1005500004F0294630BD94F0000F83F4801306BFE9
:1005600081F480110134013D4EE77FEA645C18BFDD
:100570007FEA655C29D094EA050F08BF90EA020F74
:1005800005D054EA000C04BF1946104630BD91EA6C
:10059000030F1EBF0021002030BD5FEA545C05D16F
:1005A0004000494128BF41F0004130BD14F58004AE
:1005B0003CBF01F5801130BD01F0004545F0FE4122
:1005C00041F470014FF0000030BD7FEA645C1ABF57
:1005D000194610467FEA655C1CBF0B46024650EA8E
:1005E000013406BF52EA033591EA030F41F40021BA
:1005F00030BD00BF90F0000F04BF0021704730B540
:100600004FF4806404F132044FF000054FF0000114
:1006100050E700BF90F0000F04BF0021704730B5D5
:100620004FF4806404F1320410F0004548BF4042AA
:100630004FF000013EE700BF42004FEAE2014FEAFF
:1006400031014FEA02701FBF12F07F4393F07F4FDA
:1006500081F06051704792F0000F14BF93F07F4F0C
:10066000704730B54FF4607401F0004521F000414F
:1006700020E700BF50EA010208BF704730B54FF0D5
:1006800000050AE050EA010208BF704730B511F0DA
:10069000004502D5404261EB41014FF4806404F112
:1006A00032045FEA915C3FF4DCAE4FF003025FEA94
:1006B000DC0C18BF03325FEADC0C18BF033202EB1C
:1006C000DC02C2F1200300FA03FC20FA02F001FA76
:1006D00003FE40EA0E0021FA02F11444C1E600BF15
:1006E00070B54FF0FF0C4CF4E06C1CEA11541DBFC8
:1006F0001CEA135594EA0C0F95EA0C0F00F0DEF893
:100700002C4481EA030621EA4C5123EA4C5350EA77
:10071000013518BF52EA033541F4801143F48013C8
:1007200038D0A0FB02CE4FF00005E1FB02E506F059
:100730000042E0FB03E54FF00006E1FB03569CF0AE
:10074000000F18BF4EF0010EA4F1FF04B6F5007FB4
:1007500064F5407404D25FEA4E0E6D4146EB060626
:1007600042EAC62141EA55514FEAC52040EA5E50AF
:100770004FEACE2EB4F1FD0C88BFBCF5E06F1ED859
:10078000BEF1004F08BF5FEA500E50F1000041EB90
:10079000045170BD06F0004646EA010140EA02003D
:1007A00081EA0301B4EB5C04C2BFD4EB0C0541EA5F
:1007B000045170BD41F480114FF0000E013C00F374
:1007C000AB8014F1360FDEBF002001F0004170BD98
:1007D000C4F10004203C35DA0C341BDC04F11404B1
:1007E000C4F1200500FA05F320FA04F001FA05F23D
:1007F00040EA020001F0004221F0004110EBD3700A
:1008000021FA04F642EB06015EEA430E08BF20EA35
:10081000D37070BDC4F10C04C4F1200500FA04F3D8
:1008200020FA05F001FA04F240EA020001F000416A
:1008300010EBD37041F100015EEA430E08BF20EADD
:10084000D37070BDC4F1200500FA05F24EEA020E25
:1008500020FA04F301FA05F243EA020321FA04F054
:1008600001F0004121FA04F220EA020000EBD3700B
:100870005EEA430E08BF20EAD37070BD94F0000F0B
:100880000FD101F00046400041EB010111F4801F3F
:1008900008BF013CF7D041EA060195F0000F18BFF0
:1008A000704703F00046520043EB030313F4801F2C
:1008B00008BF013DF7D043EA0603704794EA0C0FE6
:1008C0000CEA135518BF95EA0C0F0CD050EA4106FC
:1008D00018BF52EA4306D1D181EA030101F0004179
:1008E0004FF0000070BD50EA410606BF10461946A1
:1008F00052EA430619D094EA0C0F02D150EA0136AD
:1009000013D195EA0C0F05D152EA03361CBF1046ED
:1009100019460AD181EA030101F0004141F0FE418C
:1009200041F470014FF0000070BD41F0FE4141F410
:10093000780170BD70B54FF0FF0C4CF4E06C1CEA10
:1009400011541DBF1CEA135594EA0C0F95EA0C0FC5
:1009500000F0A7F8A4EB050481EA030E52EA033580
:100960004FEA013100F088804FEA03334FF08055A1
:1009700045EA131343EA12634FEA022245EA1115CE
:1009800045EA10654FEA00260EF000419D4208BF7F
:10099000964244F1FD0404F5407402D25B084FEA2C
:1009A0003202B61A65EB03055B084FEA32024FF4D8
:1009B00080104FF4002CB6EB020E75EB030E22BF35
:1009C000B61A754640EA0C005B084FEA3202B6EBF5
:1009D000020E75EB030E22BFB61A754640EA5C00A4
:1009E0005B084FEA3202B6EB020E75EB030E22BF34
:1009F000B61A754640EA9C005B084FEA3202B6EB35
:100A0000020E75EB030E22BFB61A754640EADC00F3
:100A100055EA060E18D04FEA051545EA16754FEA55
:100A200006164FEAC30343EA52734FEAC2025FEA73
:100A30001C1CC0D111F4801F0BD141EA00014FF002
:100A400000004FF0004CB6E711F4801F04BF0143D3
:100A50000020B4F1FD0C88BFBCF5E06F3FF6AFAEEF
:100A6000B5EB030C04BFB6EB020C5FEA500C50F17F
:100A7000000041EB045170BD0EF0004E4EEA113102
:100A800014EB5C04C2BFD4EB0C0541EA045170BD09
:100A900041F480114FF0000E013C90E645EA060E4D
:100AA0008DE60CEA135594EA0C0F08BF95EA0C0F7B
:100AB0003FF43BAF94EA0C0F0AD150EA01347FF4C3
:100AC00034AF95EA0C0F7FF425AF104619462CE79A
:100AD00095EA0C0F06D152EA03353FF4FDAE1046FD
:100AE000194622E750EA410618BF52EA43067FF44E
:100AF000C5AE50EA41047FF40DAF52EA43057FF4DE
:100B0000EBAE12E700000000000000000000000053
:100B10004FF0FF3C06E000BF4FF0010C02E000BFC9
:100B20004FF0010C4DF804CD4FEA410C7FEA6C5CAC
:100B30004FEA430C18BF7FEA6C5C1BD001B050EA4F
:100B4000410C0CBF52EA430C91EA030F02BF90EA3A
:100B5000020F0020704710F1000F91EA030F58BFF9
:100B6000994208BF90422CBFD8176FEAE37040F05B
:100B7000010070474FEA410C7FEA6C5C02D150EAF9
:100B8000013C07D14FEA430C7FEA6C5CD6D152EAB4
:100B9000033CD3D05DF8040B704700BF8446104679
:100BA00062468C461946634600E000BF01B5FFF778
:100BB000B7FF002848BF10F1000F01BD4DF808ED48
:100BC000FFF7F4FF0CBF012000205DF808FB00BF19
:100BD0004DF808EDFFF7EAFF34BF012000205DF873
:100BE00008FB00BF4DF808EDFFF7E0FF94BF0120C0
:100BF00000205DF808FB00BF4DF808EDFFF7CEFFC1
:100C000094BF012000205DF808FB00BF4DF808EDFF
:100C1000FFF7C4FF34BF012000205DF808FB00BFD0
:100C20004FEA410212F5001215D211D56FF4787314
:100C3000B3EB625212D94FEAC12343F0004343EAB7
:100C4000505311F0004F23FA02F018BF4042704792
:100C50004FF00000704750EA013005D111F000401C
:100C600008BF6FF0004070474FF00000704700BFB2
:100C7000704700BF000000000000000000000000FE
:100C8000FEE700BF000000000000000000000000C0
:100C900072B6304880F30988022383F31488BFF3C7
:100CA0006F8F2D4B2D4A93420BD2D9430A4422F029
:100CB000030204321A444FF0553143F8041B9342A7
:100CC000FBD1274B83420BD2264AD21A22F00302D1
:100CD00004321A444FF0553143F8041B9342FBD1C0
:100CE00002F0BEF9204A214B9A420CD2D04318445C
:100CF00020F003001E4B0430184453F8041B42F844
:100D0000041B8342F9D11B4B1B4A93420AD2D9439D
:100D10000A4422F0030204321A44002143F8041B5F
:100D20009A42FBD1154D164CFFF7A2FFAC4204D2FC
:100D300054F8043B9847AC42FAD3124D124CFFF7DB
:100D400037FAAC4204D254F8043B9847AC42FAD389
:100D5000FFF796FF0008002000000020000400209C
:100D600000040020FF0700200008002014080020D5
:100D7000B04B000814080020A00C0020AC010008B3
:100D8000AC010008AC010008AC0100080000000044
:100D9000FEE700BF000000000000000000000000AF
:100DA00000F09EFA00DF00BF00000000000000001D
:100DB000EFF30983203383F30988002383F3118839
:100DC000704700BF000000000000000000000000AD
:100DD00008B5094B094A002199600720DA60102103
:100DE00000F096F820210A2000F092F880210B20D4
:100DF000BDE8084000F08CB800ED00E00003FA0503
:100E0000202383F31188174B5B6813F4006319D018
:100E1000EFF309834FF0807243F8042CA3F1200212
:100E200082F3098810498A69D07F70B10868916897
:100E300082688A4294BF002201227AB10B4A43F8A9
:100E4000082C704783F3118870470868916882689E
:100E50008A4234BF00220122002AEFD1044A43F81B
:100E6000082C704700ED00E040090020A10D0008AB
:100E7000A40D0008000000000000000000000000B9
:100E800008B5202383F3118800F09AF8002383F338
:100E90001188BDE80840FFF7B3BF00BF00000000A5
:100EA0002DE9F04FC1F80CD0D0F80CD0BDE8F08F90
:100EB000002383F311882846A04700F0D9FA704731
:100EC00070B420F0030404F1604404F56144C200EE
:100ED0004309D4F8005302F01802FF269B00964005
:100EE00003F16043914003F5614325EA060200F0F7
:100EF0001F00012505FA00F01143C4F80013C3F8E0
:100F0000800170BC18607047000000000000000005
:100F100020F0030303F1604303F56D4300F0030089
:100F200010B4C0009A69FF248440814022EA040082
:100F30000843986110BC70470000000000000000EA
:100F4000024B034A9B699A61FEE700BF40090020FB
:100F50002045000800000000000000000000000024
:100F600000B583B0FFF734FF00F0D2F800F050F87E
:100F700000F08EFA00F0C4FA40210B4800F0C0F9EE
:100F80000A49012288610277002383F3118862B63F
:100F90008969074888610093D821064B064800F00C
:100FA000FFF903B05DF804FB14080020400900209D
:100FB00030450008410F00085808002000000000DC
:100FC00070B5114B9A69D37F0BB1013BD3770F4CAE
:100FD000E36822680133A242E36014D09668013EC0
:100FE000966086B91168D5682160D66000234C6090
:100FF00083F311881069A847202383F3118822689E
:101000009368002BEED070BD40090020300900200D
:10101000044B4FF0FF3100225B601B609960DA6087
:10102000704700BF300900200000000000000000F1
:1010300070B40C4E3468A5680361A942C26004D93B
:101040002468491BA5688D42FAD363684360B442A3
:10105000046060601860816002D0A368591AA160C2
:1010600070BC704730090020000000000000000044
:10107000074A0368934203D0996882680A449A60D9
:1010800042681360016800234A60C360704700BF74
:1010900030090020000000000000000000000000F7
:1010A00010B4202383F31188037F0D2B11D8DFE8C0
:1010B00003F025101007100B101010101010100B5B
:1010C000026A93680133936090E80C001A6002682A
:1010D00053604FF0FF34002381680B4A04620377AA
:1010E000126893688B42FBD2516841600260002312
:1010F0005060086083F3118810BC7047002383F3AD
:10110000118810BC704700BF40090020000000009B
:10111000034B00225B601B605B611B619A60704740
:101120004009002000000000000000000000000056
:1011300000228168074B10B4044602771B689A6846
:101140008A42FBD25A686260236020465C60146069
:1011500010BC7047400900200000000000000000A3
:10116000084B99691A6810B408771420C87710687A
:101170001860012443601477104610BC9A61FFF791
:101180008FBE00BF400900200000000000000000EA
:1011900030B54B1C87B012D00C4C0D4AA3690546E4
:1011A00001A8FFF745FF2846FFF7DAFF049B13B1BC
:1011B00001A8FFF75DFFA369186A07B030BD034CB3
:1011C000FFF7CEFFA369186A07B030BD40090020C1
:1011D000A110000800000000000000000000000056
:1011E000144BF0B404469D690162A868A16881426D
:1011F0004FF000020BD822771B689A689142FBD906
:101200005A68626023605C601460F0BC70472A77A3
:101210001A46126891688842FBD956686E600127A9
:101220002A60556035602777294620469C61F0BCCE
:10123000FFF736BE4009002000000000000000005B
:101240000E4B1868026830B401219C691A60536023
:10125000142501770022A168E5779861227703467B
:1012600000E01B689A688A42FBD25A686260236079
:1012700021465C60146030BCFFF712BE40090020BC
:101280000D4B1868026810B401219C691A60536004
:1012900001770022A16822779861034600E01B686D
:1012A0009A688A42FBD85A686260236021465C6073
:1012B000146010BCFFF7F4BD4009002000000000DE
:1012C000044B1A689B6992689B689A4200D87047E1
:1012D000FFF7D6BF4009002000000000000000001A
:1012E000034B9B69DB7F0BB1FFF7CABFFFF7A8BFBA
:1012F0004009002000000000000000000000000085
:10130000F0B50E4CC16365694561002281600461DE
:1013100000F1280160614FF0020E1427012600F150
:10132000240480F81CE0C7778677427782634263A3
:10133000826128614462C1628162F0BD400900207F
:10134000F0B5144D144FA1F1240E00EB0E0669699F
:10135000C66040F80E30059B7360022337624FF081
:10136000140E8260C263037700F128020023012774
:1013700000F124060561416180F81FE0877743771B
:10138000686183634363836108614662C26282620B
:10139000F0BD00BF40090020B10E000800000000B1
:1013A000F8B51E460446202383F31188164B2439D2
:1013B00045185F69C5604650069E14496E602962F3
:1013C0004FF0020C00258260C2634FF0140E00F152
:1013D000280200F12406012103618177476180F82A
:1013E0001CC0586180F81FE04577856345638561BF
:1013F000294638614662C2628262FFF7F1FE2B46DF
:1014000083F311882046F8BD40090020B10E000882
:1014100008B50146202383F311880620FFF7B8FEA4
:10142000002383F3118808BD0000000000000000C5
:1014300038B50E4B9C692546206255F8240FA8420A
:1014400006D003686362FFF773FE606AA842F8D1B2
:10145000637F9B0704D1636922691A612269536122
:101460000E20BDE83840FFF77BBE00BF40090020DA
:10147000202383F31188FFF7DBBF00BF00000000CB
:101480000023406000608360704700BF00000000E0
:10149000054A064B0648074922F0070223F00703D6
:1014A00002600B60704700BFA70C002000C0012045
:1014B000600900205C09002000000000000000001E
:1014C00010B4202383F31188094C0A4B2268196851
:1014D000C31D23F00703891A8B429DBF9B1823600D
:1014E00010460020002383F3118810BC704700BF12
:1014F000600900205C0900200000000000000000DE
:10150000044B054A1A6003F1100000229A60DA6069
:10151000FFF7B6BF68090020C114000800000000F2
:1015200008B500F0C5FC054800F08AFE00F020F880
:1015300000F036F8BDE8084001F09ABD904600087A
:1015400008494A68104482424B6802D29A4205D93F
:1015500070479A42F7D99842F5D8F9E79842F2D8FD
:10156000704700BF001000E0000000000000000015
:1015700000F026BE00000000000000000000000097
:1015800000230122027043608360C36003614361F2
:101590001830FFF775BF00BF00000000000000001A
:1015A00001F076B90000000000000000000000001B
:1015B0000023012202704360C36183620362C3623D
:1015C0004362036303814381704700BF0000000052
:1015D00038B50446202383F3118800254160C56097
:1015E00005614561856101F06BF902222B4622708D
:1015F00083F3118838BD00BF000000000000000028
:10160000536910B42BB100241C605C609C60DC60EA
:101610001C6193692BB100241C605C609C60DC60E1
:101620001C6100EB810310BCDA6001F031BA00BF2D
:1016300030B400EB81040025E4686469E260636013
:101640002570A56030BC01F08BBB00BF000000001E
:1016500070B5058945FA01F313F0010401D00120AA
:1016600070BD012303FA01F63543058101F0A0FCAA
:10167000204670BD000000000000000000000000D7
:10168000002202210170A0F84C2080F84E2080F842
:101690004F2002814281C26002614261826180F812
:1016A000342001F07DB900BF000000000000000000
:1016B000F8B50023044680F8343000F1440201F00C
:1016C000BFFA63689B68002B31D02046984770B3FF
:1016D000E06B94F84430B4F84A2082423CBFE263A5
:1016E00010461A0600F1AB80002800F08B80E368FA
:1016F000A56B9B690022042184F834101146DD603B
:1017000058601A709A60204601F0AAFA202383F3E9
:101710001188638913F0010105D143F0010363814E
:10172000204601F035FC002383F31188F8BD94F8BE
:10173000443013F060071E4611D00021204601F00E
:101740005FFC0021204601F04BFC63681B6813B16D
:10175000052120469847062384F83430F8BD94F8D4
:10176000450003F07F0242EA0025B5F5407F00F016
:10177000EB8016DDB5F5C06F00F0CE802FDDB5F53E
:10178000106F76D040F60242954200F0EF80B5F53A
:10179000006FD2D104F14F0201202764A263E063FD
:1017A00099E7022D00F0A28040F39780B5F5807F85
:1017B00000F08480B5F5817FBFD194F84630002BCE
:1017C000BBD194F8483013F00F0115D01E06204607
:1017D00000F1F48001F024FC94F844600CE040F245
:1017E00002339D4257D0B5F5A06FA6D1B4F844306E
:1017F000B3F5A06F00F0D0800023A363E3632364FC
:1018000033062AD4E3685A690521002384F834108A
:1018100019461370D36053609360204601F0A0FA1C
:10182000202383F31188238913F001017FF47BAF18
:1018300043F001032381204601F0BAFB73E760B156
:10184000E368A56B5B690022012184F8341011461E
:10185000DD6058601A709A60DFE7E3689A690321D7
:10186000002384F8341019461370D36053609360DA
:1018700049E794F8463084F84F30002B7DD103239C
:10188000237063681B68002BB6D00221204698475E
:1018900094F84460B0E794F84630002B7FF44DAFE5
:1018A00094F8483013F00F01A6D01D06204600F131
:1018B0008A8001F095FB94F844609DE794F84630E7
:1018C000012B7FF43AAFB4F84C30A76323F0020346
:1018D000E7632764A4F84C3092E7002D43D104F16C
:1018E0004C0202202564A263E063F4E694F84810F9
:1018F00011F0800F204601F00F0141D101F080F975
:10190000012841D002287FF418AF314BA363E06374
:10191000276494F84430DEE694F84900616894F84E
:1019200048304D6894F8462094F8471043EA002365
:101930002046A84700283FF400AF09C82764A363E6
:10194000E06394F84430C6E694F84630012B7FF407
:10195000F4AEB4F84C30A76343F00203E7632764A6
:10196000A4F84C304CE7012D7FF4E7AE194AA2638E
:1019700002200022E0632264ADE60423237080E7A6
:1019800001F04EF90128BDD1134BA363E563276431
:10199000284694F844309EE694F8463084F84E3059
:1019A000204601F065F863681B6813B101212046E9
:1019B0009847032394F8446023701DE701F040FB2F
:1019C00094F8446018E701F01BFB94F8446013E7B7
:1019D0006045000850450008704500080000000000
:1019E00038B590F83430022B04463FD0052B36D062
:1019F000012B10D0002101F003FB0021204601F053
:101A0000EFFA63681B6813B1052120469847062347
:101A100084F8343038BDB0F84A30C26B9342C368A2
:101A200026D89A690321002384F8341020461946E9
:101A30001370D3605360936001F012F9202383F395
:101A40001188638913F0010105D143F0010363811B
:101A5000204601F09DFA002383F3118838BD036C02
:101A600003B19847002384F8343038BDC368D8E701
:101A70001D8AB2FBF5F105FB1122002AD1D15B6969
:101A800011461A70DA605A609A6001F069F92023F1
:101A900083F31188238913F0010105D143F0010379
:101AA0002381204601F084FA002383F31188022366
:101AB00084F8343038BD00BF000000000000000092
:101AC00090F83430032B10B504461FD0042B21D1DD
:101AD000C3685A690521002380F834101946137031
:101AE000D3605360936001F03BF9202383F31188A6
:101AF000238913F0010105D143F00103238120461E
:101B000001F056FA002383F3118810BDC3689B6966
:101B10009B688BB10021204601F072FA002120461B
:101B200001F05EFA63681B6813B1052120469847EF
:101B3000062384F8343010BD036C03B198470023AA
:101B400084F8343010BD00BF000000000000000029
:101B500008B5074B074A196801F03D019960136801
:101B60000BB150689847BDE80840FFF749B900BF7E
:101B70000060024088090020000000000000000012
:101B8000084B094819688268890901F03D0110B5C0
:101B90008C019C600AB1C0689047BDE81040FFF717
:101BA0002FB900BF0060024088090020000000003B
:101BB000084B094819680269090C01F03D0110B58C
:101BC0000C049C600AB140699047BDE81040FFF7E3
:101BD00017B900BF00600240880900200000000023
:101BE000084B094819688269890D01F03D0110B55B
:101BF0008C059C600AB1C0699047BDE81040FFF7B2
:101C0000FFB800BF0060024088090020000000000B
:101C100008B5074B07485968026A01F03D01D960D1
:101C20000AB1406A9047BDE80840FFF7E9B800BF35
:101C30000060024088090020000000000000000051
:101C4000084B09485968826A890901F03D0110B5BD
:101C50008C01DC600AB1C06A9047BDE81040FFF714
:101C6000CFB800BF006002408809002000000000DB
:101C7000084B09485968026B090C01F03D0110B589
:101C80000C04DC600AB1406B9047BDE81040FFF7E0
:101C9000B7B800BF006002408809002000000000C3
:101CA000084B09485968826B890D01F03D0110B558
:101CB0008C05DC600AB1C06B9047BDE81040FFF7AF
:101CC0009FB800BF006002408809002000000000AB
:101CD00008B5074B07481968026C01F03D0199608F
:101CE0000AB1406C9047BDE80840FFF789B800BFD3
:101CF000006402408809002000000000000000008D
:101D0000084B09481968826C890901F03D0110B53A
:101D10008C019C600AB1C06C9047BDE81040FFF791
:101D20006FB800BF00640240880900200000000076
:101D3000084B09481968026D090C01F03D0110B506
:101D40000C049C600AB1406D9047BDE81040FFF75D
:101D500057B800BF0064024088090020000000005E
:101D6000084B09481968826D890D01F03D0110B5D5
:101D70008C059C600AB1C06D9047BDE81040FFF72C
:101D80003FB800BF00640240880900200000000046
:101D900008B5074B07485968026E01F03D01D9604C
:101DA0000AB1406E9047BDE80840FFF729B800BF70
:101DB00000640240880900200000000000000000CC
:101DC000084B09485968826E890901F03D0110B538
:101DD0008C01DC600AB1C06E9047BDE81040FFF78F
:101DE0000FB800BF00640240880900200000000016
:101DF000084B09485968026F090C01F03D0110B504
:101E00000C04DC600AB1406F9047BDE81040FEF75B
:101E1000F7BF00BF006402408809002000000000F6
:101E2000084B09485968826F890D01F03D0110B5D2
:101E30008C05DC600AB1C06F9047BDE81040FEF72A
:101E4000DFBF00BF006402408809002000000000DE
:101E50000E490F4A0F48002310B40B600E4C194670
:101E600001E052F80C0C016044F833100133102BE0
:101E700002F10C02F5D10949094A10BC4FF0FF33B9
:101E80008B60CB609360D360704700BF080A00206E
:101E90008C45000810600240880900200060024064
:101EA000006402400000000000000000000000008C
:101EB0001F4B20491A694FF0FF300022F0B518611E
:101EC0001A615C6958615A611C6A1B4E1B4F1C4D9C
:101ED00064F080541C621A620724D3F824E058622C
:101EE0005A624F608A600C60F168164841F0807158
:101EF000F160296841F001012960196C41F08051BD
:101F00001964016841F480710160196F01F4407136
:101F1000B1F5007F03D04FF4803119671A67094A81
:101F2000536823F400735360BDE8F040FFF790BF9F
:101F30000038024010E000E0F0ED00E03F900200C9
:101F4000001000E0007000400000000000000000F1
:101F50002C492D4B4FF080504FF4404208641A60DA
:101F60000B6843F001030B600A68264B9007FBD512
:101F70009A6822F003029A609A689A6019468B6800
:101F8000204A13F00C03FAD1116801F0F901116035
:101F90009360136843F4803313601168194B89030D
:101FA000FBD55A6F42F001025A675A6F15499007E4
:101FB000FBD5164B4B600B68134A43F080730B60E4
:101FC00053685904FCD50F490A680E4B9201FBD5A2
:101FD0000F4A1049996040F2057111609A6842F009
:101FE00002029A601A469368064903F00C03082B14
:101FF000F9D14B6C43F480434B644B6E43F4804304
:102000004B6670470038024000700040085440079B
:10201000003C02400094083800000000000000006E
:10202000F8B5604B1A6800211960910638D55E4CEE
:10203000E16A0A685368002B32D02569002D2FD041
:10204000136823F01F031360136813F00103FBD11F
:10205000087AAE684F68A26A534D3D2101FA00F03C
:102060000121386053609360916046B105232B7065
:102070002846B0472B78052B04BF02232B70002283
:1020800022614949202383F31188606928B14FF008
:10209000FF3303624A61FFF74BF8002383F3118893
:1020A000424B1A6800219206196038D5404CE16A0B
:1020B0000A685368002B32D02569002D2FD0136891
:1020C00023F01F031360136813F00103FBD1087A98
:1020D000AE684F68A26A364D3D2101FA00F0012139
:1020E000386053609360916046B105232B70284699
:1020F000B0472B78052B04BF02232B7000222261EE
:102100002B49202383F31188606928B14FF0FF33F6
:1021100003624A61FFF70CF8002383F31188254B13
:102120001A6800211960930638D5234CE16A0A68C1
:102130005368002B32D02569002D2FD0136823F06F
:102140001F031360136813F00103FBD1087AAE6814
:102150004F68A26A184D3D2101FA00F00121386054
:1021600053609360916046B105232B702846B047B9
:102170002B78052B04BF02232B70002222610E490D
:10218000202383F31188606928B14FF0FF33036285
:102190004A61FEF7CDFF002383F31188BDE8F840C4
:1021A000FEF72EBE002001400C0A00200021014055
:1021B000400A002000220140740A002000000000B4
:1021C000F8B5124F124E134D134C3846FFF7D8F99D
:1021D000124A134BBA6230463B63FC62FFF7D0F9F8
:1021E000104A114BB2622846A4F11802F26233631E
:1021F000243CFFF7C5F90D4B0D4AEC62AA622B6334
:1022000060211220BDE8F840FEF75ABE0C0A0020FB
:10221000400A0020740A00201046000800200140F7
:10222000162C020000210140162C0202162C02047A
:10223000002201400000000000000000000000003B
:10224000F0B4654D654C2F6B6549664A664B40F2AC
:10225000FF1637432F632F6D3E432E65456865603B
:102260008568A560C568E5600569656145692562A1
:102270008569656205682560046A4C60446A8C6003
:10228000846ACC60C46A4C61046B0C62446B4C621F
:10229000C4690C60C16B5160016C9160416CD1608C
:1022A000816C5161C16C1162016D5162816B116071
:1022B000826D5A60C26D9A60026EDA60426E5A6137
:1022C000826E1A62C26E5A62426D1A60426FC3F821
:1022D0000424826FC3F80824C26FC3F80C24D0F81A
:1022E0008020C3F81424D0F88420C3F82024D0F828
:1022F0008820C3F82424026FC3F80024D0F890206B
:10230000C3F80428D0F89420C3F80828D0F89820FF
:10231000C3F80C28D0F89C20C3F81428D0F8A020CB
:10232000C3F82028D0F8A420C3F82428D0F88C20A3
:10233000C3F8002803F54063D0F8AC205A60D0F809
:10234000B0209A60D0F8B420DA60D0F8B8205A6192
:10235000D0F8BC201A62D0F8C0205A62D0F8A82069
:102360001A60D0F8C820C3F80424D0F8CC20C3F8F1
:102370000824D0F8D020C3F80C24D0F8D420C3F817
:102380001424D0F8D820C3F82024D0F8DC20C3F8D7
:102390002424D0F8C420C3F80024D0F8E420C3F8E3
:1023A0000428D0F8E820C3F80828D0F8EC20C3F8B7
:1023B0000C28D0F8F020C3F81428D0F8F420C3F883
:1023C0002028D0F8F820C3F82428D0F8E020C3F85B
:1023D0000028F0BC704700BF0038024000000240F7
:1023E0000004024000080240000C0240000000000F
:1023F0002DE9F04F4FF00F0C02F0030EC2F38007EF
:10240000C2F3C106C2F341150024C2F3C3124FF058
:1024100001094FF0030830E0D0F820B02BEA0303A5
:1024200043EA0A030362436809FA04FA23EA0A0347
:102430003B4343606300D0F808A008FA03F3DB4392
:102440000AEA030A4AEA060AC0F808A0D0F80CA073
:1024500003EA0A0A4AEA050AC0F80CA0D0F800A06C
:1024600003EA0A0343EA0E030360490819D07F0018
:10247000B600AD004FEA8E0E013404F007039B0056
:1024800011F0010F02FA03FA0CFA03F3EDD0072C56
:10249000C2D9D0F824B02BEA030343EA0A0343620B
:1024A000C1E7BDE8F08F00BF0000000000000000A1
:1024B0002DE9F04FB24BB3499A69D0F85090916131
:1024C00085B08346202383F311880026CDF8009041
:1024D0009BF80030012B06D0DBF85C307BB9009B09
:1024E0005B69DB060BD40099A54A8B69926943F0BE
:1024F00010038B610220CBF86420FEF731FE00232D
:1025000083F311889A46009B5B6913F0100224D074
:10251000DBF85000036A03F4F012B2F5802F32D0DA
:10252000B2F5402FEFD103F00F020BEB8202C3F3A1
:102530000A13D26803339B08146AE4D000F5805074
:102540000222016812B144F8041B013A013BF8D1A0
:10255000009B5B6913F01002DAD10121DBF85C30DB
:1025600001FA0AF11942039177D10AF101030293AA
:10257000DBF854309DF808A09B689A45C3D9202306
:1025800083F31188A4E703F00F070BEB8707C3F36E
:102590000A15FB6899690B78EBB94B688A68D1F822
:1025A0000CE003339A1AEB1C9B084FEA920209D005
:1025B00000F58050F446046812B14CF8044B013A1F
:1025C000013BF8D10EEB0504CC60FB689A69936877
:1025D0002B44936097E7CC683DB3626900F5805067
:1025E000AE46BEF1030F07D92369934204D8E268CF
:1025F0006261BEF1030FF7D8D0F800C000232CFAB7
:1026000003F102F10108C4F81480117022696169B4
:10261000914224BFE2686261BEF1010E03F108033A
:1026200003D0202B6269EAD1DBE7202383F31188F2
:10263000A36820682B448442A36008D00368236009
:102640005C60FEF775FD06622068A042F6D1FEF7D9
:1026500037FE002383F31188B7E7202383F3118823
:10266000009CDBF85C30A068039920F0010023EAAD
:102670000101A0601346CBF85C1083F311880BEBCB
:102680008A030193D9684869826843689A4280F056
:10269000B980DBF850400D8A4FEA4A1804EB080174
:1026A0009B1AD1F818299D4228BF1D4693B2B5EB5D
:1026B000830F0AF1010302932ED81B039A46037875
:1026C000002B3ED1EB1C04EB0A0CC4689B0852465D
:1026D00018BF224605D052F8041BCCF80010013B6D
:1026E000F9D12C44C460019BD96848698368426869
:1026F0002B449A42836040F28880DBF85040098A7C
:1027000004EB080ED51ADEF818398D4228BF0D46A5
:102710009BB2B5EB830FD2D90022202383F311881B
:102720000098836843F00103014683602AB9D0F81A
:102730003438039A1A43C1F83428002383F31188EC
:1027400016E704EB0A0CC46815B3D4F810902A46B7
:10275000910835D1A369002108465F1CA7611B7849
:102760004F4503FA01F340EA030024BFE368A36185
:10277000013A01F1080107D0202905D0A369ECE74F
:102780004009002050460008CCF80000002ADFD1A4
:10279000202383F31188A36820682B448442A3601C
:1027A00008D0036823605C60FEF7C2FC0662206804
:1027B000A042F6D1FEF784FD002383F3118892E74F
:1027C000A069B9EB000348BF03339B108B4228BFBD
:1027D0000B464FEA830ECEEB02023BB1014651F8A5
:1027E000047BCCF80070013BF9D170448145A061B5
:1027F00004D8E368A361002AAAD1C9E7002AC7D098
:102800000346A8E70AF101030293012285E700BF0E
:10281000F0B50024D1F808E025464FF0804C4FF089
:10282000FF3714E0C1F80059C218C2F81059C2F8B5
:102830000879D1F8006B002E17DBC1F8005B034468
:1028400001347445C3F8105BC3F8087B14D86301E6
:10285000C118D1F80029002AE4DAC1F800C90E46EF
:10286000D6F808299207FBD5DEE7C1F800CBD2F8ED
:10287000081BC906FBD5E2E74FF00113C0F81C386E
:10288000F0BD00BF000000000000000000000000DC
:1028900010B5064C2046FEF78BFE4FF0A043044ACD
:1028A0002365002362652366636610BDA80A0020C5
:1028B000404600080000000000000000000000008A
:1028C0000378012B00D0704770B5304B066D9842ED
:1028D00082B0054649D02B6E0022EA65002B38D025
:1028E0002B4BF3602B492C6DC6F800184FF4502386
:1028F0000022C6F8002E2020B363FEF721FE01233C
:1029000023612369DB07FCD40C20FEF719FE236941
:10291000002BFCDA0024B460696D286DFFF778FFA6
:102920006B68C6F81048DB68C6F81448C6F81C483F
:102930005BB143F20803B3614FF0FF337361B368D7
:1029400043F00103B36002B070BD4FF44053B36174
:10295000F2E70095104B02224FF4A47105F16800D4
:10296000FEF7EEFC68662866BAE70C4B5A6B42F03D
:1029700080025A635A69002042F080025A61E021C5
:1029800058614320FEF79CFAA5E700BFA80A002083
:102990004014004003002002B12400080038024027
:1029A000F8B5056D202307462B612B6913F0200431
:1029B000FBD10C20FEF7C4FDD7F854E0DEF8086028
:1029C00023464FF00060FF2105EB43120133B34271
:1029D000C2F80009C2F8000BC2F80819C2F8081BB7
:1029E000F2D9DEF800304FF0FF324FF00111C5F898
:1029F00018283A6DC5F81C18BB65DEF800306B620C
:102A000010231361136913F01004FBD10C20FEF79F
:102A100097FDD5F80038114A114823F4FE63C5F834
:102A20000038AB6943F4402343F010030921AB6144
:102A3000C5F81018C5F81418F860C5F8104BC5F89B
:102A4000002BC5F81049C5F80029BB6D03F1100231
:102A500043F48013BA65AB62F8BD00BF408000103C
:102A600060460008000000000000000000000000B8
:102A7000026D90F84E10D2F8003823F4FE6343EA5A
:102A80000113C2F800387047000000000000000089
:102A90002DE9F8430FFA81F800EB88070D46FB6833
:102AA0001A6802F00302022A5ED0032A5ED04C4E5E
:102AB0004C49012A18BF0E46046DD9686A0104EB1F
:102AC000020E4FF0000CCEF810CB002973D0B3F8F3
:102AD00012E005F1580149014EEA060E44F801E002
:102AE00005F1100CD4F81C184FF0010E0EFA0CFE74
:102AF0004EEA0101C4F81C18224499684FF0000EF8
:102B0000C2F810E9002933D0998B1A8A01294FEABB
:102B10009203826D88BF4B4305F13F0103EB020E28
:102B200004EB810142EA0343AA0142F02002C0F80B
:102B300058E04B60226123699A06FCD40C20FEF712
:102B4000FFFCFB681A8A05F1480342EA85525B01E3
:102B50003243E2500121D4F81C3801FA05F51D4337
:102B6000C4F81C58BDE8F8831F4EA5E71F4EA3E725
:102B700005F13F0204EB8202AB011D49516043F0B5
:102B80002003236123699B06FCD404EB48180C2026
:102B9000FEF7D6FCD8F8003923F40043C8F8003912
:102BA000D4F81C38012202FA05F523EA0503C4F81B
:102BB0001C38BDE8F88304EB481105F11009D1F881
:102BC00000CB2CF4004CC1F800CBD4F81C184FF00B
:102BD000010E0EFA09FE21EA0E01C4F81C188BE75B
:102BE00000800410008000100080081000800C108D
:102BF00000040002000000000000000000000000CF
:102C00005831036D49015B5813F4004004D013F4AC
:102C1000001F14BF01200220704700BF0000000009
:102C20004831036D49015B5813F4004004D013F49C
:102C3000001F14BF01200220704700BF00000000E9
:102C400000EB8101CB681B6A19685B6853601160F7
:102C5000704700BF000000000000000000000000FE
:102C600000EB810330B4DD68AC696368236131B97E
:102C7000402B04D940236360094A3F2402E05C1ED4
:102C800043F0C042006D6D8A00EB41112B19B3FB7C
:102C9000F5F342EAC343C1F8103B30BC704700BFB4
:102CA0004000006000000000000000000000000084
:102CB0002DE9F041264E376D07EB40130546D3F85A
:102CC000084BC3F8084B200703D5D7F81438190769
:102CD0001DD4E20719D5D7F81438DB0715D506EB54
:102CE00085061B4CF1688B6958681A69904216D3A7
:102CF0006289CE680123AB4022EA0303638129463F
:102D000020463346BDE8F0411847BDE8F08106EBA8
:102D100085032946DB6830465B689847D9E7121A75
:102D200000265A609E6029462046FFF799FF20231F
:102D300083F31188236D03EB45153346D5F8002B3B
:102D400042F08062C5F8002B83F31188BDE8F08162
:102D5000A80A0020000000000000000000000000A1
:102D600000EB810310B4DC68626953681361A3B19E
:102D700069B15A1E006D248A00EB41112244B2FB56
:102D8000F4F243EAC243C1F8103910BC7047402B3B
:102D9000EFD9402353603F22ECE7036D10BC03EBF7
:102DA00041114FF40023C1F81039704700000000B2
:102DB0002DE9F041324D2E6D06EB40130746D3F856
:102DC0000849C3F80849E10703D5D6F81038DA07EF
:102DD00020D423061CD50123D6F8342803FA07F79C
:102DE000174215D0202383F31188EA6DD6F83438C2
:102DF000686E234C3A4323EA0707EA65C6F834783D
:102E000018B1FEF795F900236366002383F3118858
:102E1000BDE8F08105EB8003D9684B6958681A69F1
:102E2000904220D2121A4FF000085A60C3F808806E
:102E300039462846FFF794FF202383F311882A6D33
:102E400002EB47104346D0F8001941F00441C0F8A6
:102E50000019D2F834080121B9400143C2F83418EE
:102E600083F31188B5E72A89D1F808800123BB4094
:102E700022EA03032B8139462846C047A9E700BF51
:102E8000A80A002000000000000000000000000070
:102E900070B53B4D2E6D7469B3691C40E0047461DC
:102EA0003ED4A10448BFD6F80838220704D56B6881
:102EB000DB680BB132489847E30610D5202383F333
:102EC0001188B369686E2E4D23F01003B36118B1F9
:102ED000FEF72EF900236B66002383F3118860034D
:102EE000D6F8185807D5E90736D4AA0739D46B079E
:102EF0003CD42E073FD4240307D5E80321D4A903EB
:102F000024D46A0317D42B0303D4BDE87040FDF723
:102F100077BF0320FFF7CCFEBDE87040FDF770BF20
:102F20002846FEF7ADFB6B681B68002BB9D000216B
:102F300028469847B5E70220FFF7BAFE2B03E4D5F1
:102F4000E7E70020FFF7B4FEA903DAD50120FFF779
:102F5000AFFE6A03D7D5EEE70020FFF729FFAA07E7
:102F6000C5D50120FFF724FF6B07C2D50220FFF76C
:102F70001FFF2E07BFD50320FFF71AFFBBE700BFD7
:102F8000A80A00200000000000000000000000006F
:102F9000036D03EB4111D1F8003B43F08063C1F8AE
:102FA000003B70470000000000000000000000002F
:102FB000036D10B403EB41140120D4F8002942F052
:102FC0000442C4F80029D3F8342810BC00FA01F1F7
:102FD0001143C3F8341870470000000000000000DF
:102FE000036D03EB4111D1F8003B43F40013C1F82A
:102FF000003B7047000000000000000000000000DF
:10300000036D03EB4111D1F8003943F40013C1F80B
:1030100000397047000000000000000000000000C0
:10302000036D03EB4111D1F8003B23F40013C1F809
:10303000003B70470000000000000000000000009E
:10304000036D03EB4111D1F8003923F40013C1F8EB
:103050000039704700000000000000000000000080
:10306000FEF776BF00000000000000000000000036
:10307000704700BF000000000000000000000000DA
:10308000013921291ED8DFE801F0111B151D1D1D76
:103090001D1D1D1D1D1D1D1D1D1D1D1D1D1D1D1D60
:1030A0001D1D1D1D1D1D1D1D1D1D1D1306487047C9
:1030B00006487047042A05D8054B03EBC200704749
:1030C000044870470020704770480008C049000855
:1030D000D0480008B04900080000000000000000CF
:1030E000022912D138B505460C46202383F31188F6
:1030F000064A0121FEF784FA21462846044AFEF7D3
:103100007FFA002383F3118838BD70479047000889
:1031100080480008000000000000000000000000DF
:1031200038B50D4A142301210546FEF781FA202304
:1031300083F31188094C28460121FEF789FA2046BD
:1031400001224FF48041FFF753F94FF4804363832A
:10315000002383F3118838BD00080020000C0240D2
:10316000F8B590F8444004F07F04012C034621D0C8
:10317000212C01D00020F8BD90F84520013A0A2A00
:10318000F8D801A151F822F0FD310008ED31000816
:10319000F9310008753100087531000875310008F3
:1031A0007531000875310008ED310008ED31000877
:1031B000F931000890F84520062ADBD1416890F8E3
:1031C000497090F848304E6890F8462090F84710C3
:1031D00043EA07230546B0470028CBD090E80C000F
:1031E000AB6300232046EA632B64F8BD00228263B0
:1031F000C26302640120F8BD0120F8BD044C054AF9
:1032000082630120142100222070D9631A64F8BD62
:103210009C0C0020000800200000000000000000BE
:1032200010B5054C012220464FF48041FFF7E0F82D
:103230004FF48043238310BD000C024000000000C7
:1032400010B5054C012220464FF40041FFF7D0F89D
:103250004FF40043238310BD000C02400000000027
:1032600030B51F4A21F00043934287B01BDD1D4A51
:10327000934205DD02460B46FDF77EF807B030BDF0
:1032800002AA00F035F800F003000128DDE904236C
:103290001AD002280FD0E0B1DDE9020100F050FAA7
:1032A00001F10041EAE7002300930022002300F02F
:1032B00067FF07B030BD0124DDE90201009400F092
:1032C0005FFF01F10041D9E7DDE9020100F038FAC2
:1032D000D4E70124DDE90201009400F051FFCDE7BD
:1032E000FB21E93FFFFFEF7F00000000000000002E
:1032F0002DE9F04F944E21F00047B74291B040F3D2
:1033000082809246914A97420C4626DC002984A38B
:10331000D3E9002340F3A881FDF72EF88C4B9F42A0
:1033200004460D4600F084807FA3D3E90023FDF717
:1033300023F802460B46CAE9002320462946FDF73A
:103340001BF879A3D3E90023FDF716F80125CAE994
:103350000201284611B0BDE8F08F7E4A974240F343
:1033600084807D4A974259DC3D15A5F21645A7EBAE
:10337000055319461F460646FDF752FCFDF74AF96C
:103380008046894602460B4630463946CDE90A89D1
:10339000FCF7F2FF0022714BFDF7A2F98946804647
:1033A000FDF73EFCFDF736F902460B4606460F4692
:1033B00040464946CDE90C67FCF7DEFF0022674B2B
:1033C000FDF78EF900220023CDE90E01FDF7F6FB93
:1033D000002800F075810023304639460022FDF7B1
:1033E000EDFB002814BF012302235D4A0192022154
:1033F00000912A4651460AA800F0CAFA002CC0F2F1
:103400005181054606E0C2E9000100250024C2E919
:1034100002450025284611B0BDE8F08F02460B4654
:10342000FCF7AAFF0025CAE90201CAE90001F1E799
:103430003FA3D3E90023FCF79FFF3FA3D3E9002379
:103440000D460446FCF798FF02460B46CAE90023E6
:1034500029462046FCF790FF37A3D3E90023FCF769
:103460008BFF0125CAE90201D4E700F041FF34A334
:10347000D3E9002380468946FDF732F90022394B13
:10348000FCF77CFFFDF7CCFB0546FDF7C3F824A352
:10349000D3E90023CDE90401FDF722F902460B46EA
:1034A00040464946FCF768FF1FA3D3E90023804646
:1034B0008946DDE90401FDF713F91F2DCDE902016D
:1034C00054DC294B6A1E53F822309F424ED00246EC
:1034D0000B4640464946FCF74FFF02460B46CAE9F9
:1034E000002383460E465A46334640464946FCF77B
:1034F00043FFDDE90223FCF73FFF002C02460B46A9
:10350000CAE9022386DA5B4606F1004601F1004172
:103510008AE84800CAF80C10CAF808006D4279E73A
:1035200000004054FB21F93F3163621A61B4D03D81
:103530000000601A61B4D03D7370032E8A19A33B5A
:1035400083C8C96D305FE43FFB21E93F7BD902406E
:10355000FB21F93FFB213941FFFFEF7F0000704164
:10356000504A00080000E03FD0490008DDE902238E
:1035700040464946FCF700FF3A15C1F30A53D31AF7
:10358000102B83460E460992CAE90001ABDD5EA30B
:10359000D3E90023DDE90401FDF7A2F806460F4652
:1035A00002460B4640464946FCF7E6FECDE90601D9
:1035B00002460B4640464946FCF7DEFE32463B4695
:1035C000FCF7DAFE52A3D3E9002306460F46DDE9F5
:1035D0000401FDF785F832463B46FCF7CDFEDDE9F8
:1035E0000689CDE9020102460B4640464946FCF7F2
:1035F000C3FE0B46C1F30A570E460999CF1B02467C
:10360000312F8346CAE900237ADD43A3D3E900239F
:10361000DDE90401FDF764F806460F4602460B4655
:1036200040464946CDE90689FCF7A6FE02460B4610
:1036300080468946DDE90601FCF79EFE32463B46A0
:10364000FCF79AFE36A3D3E9002306460F46DDE9D0
:103650000401FDF745F832463B46FCF78DFE024675
:103660000B46CDE9022334E7FCF788FE304B9F423E
:1036700004460D4626D02CA3D3E90023FCF77EFE9A
:1036800002460B46CAE9002329462046FCF774FE91
:1036900025A3D3E90023FCF771FE4FF0FF35CAE9FB
:1036A0000201B7E6DAF80420DAF80C3002F1004241
:1036B00003F100434542CAF80420CAF80C30A9E6D9
:1036C000032392E610A3D3E90023FCF757FE10A3CF
:1036D000D3E900230D460446FCF750FE02460B4694
:1036E000CAE9002329462046FCF746FE08A3D3E991
:1036F0000023FCF743FE4FF0FF35CAE9020189E6DB
:10370000DDE90689EFE600BF0000601A61B4D03D34
:103710007370032E8A19A33B0000002E8A19A33B65
:10372000C14920259A837B393163621A61B4D03D47
:10373000FB21F93F00000000000000000000000035
:103740002DE9F04F21F00046B6F1795F85B00C46C7
:1037500092469B4605466BDAFDF762FA002800F0B8
:10376000E8802A46234628462146FCF7B9FF74A381
:10377000D3E9002380468946FCF7B2FF72A3D3E960
:103780000023FCF7FBFD42464B46FCF7A9FF70A364
:10379000D3E90023FCF7F0FD42464B46FCF7A0FFBF
:1037A0006DA3D3E90023FCF7E9FD42464B46FCF745
:1037B00097FF6BA3D3E90023FCF7DEFD42464B469F
:1037C000FCF78EFF68A3D3E90023FCF7D7FD424640
:1037D0004B46FCF785FFCDE900010022644B4046D3
:1037E0004946FCF77DFFDDE9002306460F464046CB
:1037F0004946FCF775FF5246804689465B46284697
:103800002146FCF76DFF02460B4640464946FCF751
:10381000B3FD02460B4630463946FCF7ADFD024685
:103820000B4600205349FCF7A7FD05B0BDE8F08F1B
:1038300002460B46FCF754FF41A3D3E90023804620
:103840008946FCF74DFF40A3D3E90023FCF796FD22
:1038500042464B46FCF744FF3DA3D3E90023FCF767
:103860008BFD42464B46FCF73BFF3BA3D3E90023CD
:10387000FCF784FD42464B46FCF732FF38A3D3E900
:103880000023FCF779FD42464B46FCF729FF36A39F
:10389000D3E90023FCF772FD4B464246FCF720FFBC
:1038A000354B9E42CDE9000197DD344B9E424FF0EF
:1038B000000238DCA6F5001300202E4916461F46EC
:1038C000FCF75AFDCDE902010022294B404649464A
:1038D000FCF706FF32463B46FCF74EFDDDE90023D0
:1038E00006460F4640464946FCF7FAFE52468046D9
:1038F00089465B4628462146FCF7F2FE02460B4607
:1039000040464946FCF738FD02460B4630463946EC
:10391000FCF732FD02460B46DDE90201FCF72CFD07
:1039200005B0BDE8F08F164B164FCDE902230026F7
:10393000CAE71049002005B0BDE8F08FAFF3008062
:10394000D43888BEE9FAA8BDC4B1B4BD9EEE213E0C
:10395000AD529C804F7E923E9015CB19A001FA3E4D
:103960007751C1166CC1563F4C5555555555A53F1D
:103970000000E03F0000F03F3233D33F0000E93F5A
:103980000000E73F0000D23F000000000000000000
:103990002DE9F04FADF51D7D784CA69E784D54F87D
:1039A000264009942646D41E85FB0475E417C4EB13
:1039B000A50424EAE4741D460B93631CA3EB830364
:1039C000013D02EBC30308932B460D940295651B42
:1039D000F41804900A9116D42C44013422AEA79F07
:1039E00008E057F82500FCF715FE0135A542E6E989
:1039F000020108D0002DF4DA013500200021A54293
:103A0000E6E90201F6D1099B002B2FDB099BDDF8CB
:103A1000089074AA02EBC30B0DF5E47A029B002B0D
:103A2000C0F295810B9BC3EB090824AB03EBC808DC
:103A3000049BA3F1080524AB03EBC904002600276F
:103A4000F5E9022374E80201FCF74AFE02460B4640
:103A500030463946FCF792FC444506460F46EFD106
:103A6000EAE90267DA4509F10109D7D1099D05F1B3
:103A70008043023B9B001A1D10A90A440B440F927D
:103A80000E939CAB03EBC503002D53E928672BDD98
:103A90009CAB03EBC504A83C0DF13C0A0DF5E47B9F
:103AA0000022384B30463946FCF71AFEFDF7B8F8CD
:103AB000FCF7B0FD0022344B80468946FCF710FE2F
:103AC00002460B4630463946FCF756FCFDF7A8F88F
:103AD00074E802234AF8040F49464046FCF74EFCBE
:103AE0005C4506460F46DBD1089C304639462246E7
:103AF00000F08EFC00224FF07F5306460F46FCF785
:103B0000EFFD00F0FDFB0022204BFCF7E9FD024633
:103B10000B4630463946FCF72FFC0F460646FDF7AC
:103B20007FF88146FCF776FD02460B463046394663
:103B3000FCF722FC002C06460F4640F3EF80691E7E
:103B400010AAC4F1180352F8212042FA03F000FA37
:103B500003F3D31A10AAC4F1170842F821308144A4
:103B600043FA08F8B8F1000F3DDD002D09F1010915
:103B700040F3D482002214460FA911E0604B0008E4
:103B8000ABAAAA2A0000703E00007041000020404D
:103B9000C3F180700BB108600124013295420DDD44
:103BA00051F8043F002CF3D0C3F1FF13013203F5A9
:103BB0007F4395420B604FF00104F1DC089B002B22
:103BC0000DDD012B00F0B280022B08D16A1E10AB74
:103BD00010A953F82230C3F3150341F82230B8F18D
:103BE000020F00F082800022002330463946FCF7A5
:103BF000E5FF002800F05C82099B05F1FF3B5B4577
:103C000010DC05F1804310AA013B0F9802EB8303FF
:103C1000002253F80419834242EA0102F9D1002A32
:103C200040F0B280099B10AA013B52F82330002BD0
:103C300040F072820E9A012352F8041901330029D0
:103C4000FAD0E9186A1C8A420C9149DC0D990B984C
:103C50005118DB0001F180410593A79B0544013910
:103C6000E80003EB810A24ABD20003EB000B74AB3A
:103C700013440193A2F10803069007934FF0000943
:103C80005AF8040FFCF7C6FC029B002BEBE802017C
:103C900028DB069B03EB0904079B09EB030824AB15
:103CA0001C449844049B0026A3F108050027F5E96D
:103CB000022374E80201FCF713FD02460B4630466E
:103CC0003946FCF75BFB444506460F46EFD1019BA6
:103CD000E3E802670193059B09F108099945CFD1F3
:103CE0000C9DCEE600260027F1E732463B46002039
:103CF000AF49FCF741FB06460F46002C3FF473AF7B
:103D0000089AAB49002000F083FB02460B46304680
:103D10003946FCF731FB06460F4664E710D16B1EAF
:103D200010AA52F823304FEAE3581BE76A1E10AB83
:103D300010A953F82230C3F3160341F822304EE79E
:103D400000229C4BFCF758FF58B980464BE70026F1
:103D50000027EAE90267DA4509F101097FF45EAE5E
:103D600084E6002D09F10109C8BF4FF002083FF7B2
:103D700001AF32463B4600208D49FCF7FDFA4FF07B
:103D8000020806460F462EE710AB089A53F82B3070
:103D9000CDF81490183ACDF8048008926BB90BF165
:103DA0008043013B10A901EB830353F804190BF185
:103DB000FF3B183A0029F8D00892089A7C49002065
:103DC00000F026FBBBF1000F04460D46C0F2B681A1
:103DD0004FEACB030DF5E87810AA02EB8B0608EB4F
:103DE00003090493043609F1080756F8040DFCF79B
:103DF00011FC22462B46FCF773FC002267E9020106
:103E00006D4B20462946FCF76BFCB84504460D4631
:103E1000EBD10DF5987A4B46CDF808A0DDF824A03B
:103E2000CDF818B04FF000099B46BAF1000FC0F270
:103E30002881DFF888815D465BA3D3E90023002653
:103E40000027002403E0A14510DBF8E90223F5E890
:103E50000201FCF745FC02460B4630463946FCF7AA
:103E60008DFA0134A24506460F46ECDA029B03EBBD
:103E7000C903ABF1080BC3E9006772AB5B4509F1FD
:103E80000109D2D1A69BDDF818B0DDF808A0032BFC
:103E900000F28380DFE813F0D30094009400040064
:103EA000BBF1000F40F35481049BCDF808B00AEB3E
:103EB0000308D8E90067D34658E9029A32463B46E0
:103EC00048465146FCF75AFA04460D4602460B4650
:103ED00048465146FCF750FA32463B46FCF74EFA4C
:103EE000C8E9000168E90245C34526462F46E3D1EB
:103EF000DA46DDF808B0BBF1010F40F32981049BDD
:103F00005344D3E90067984699460DF59C7B59E9DF
:103F100002343046CDE902341A4639462346FCF7CE
:103F20002DFA04460D4602460B46DDE90201FCF778
:103F300023FA32463B46FCF721FAC9E9000169E958
:103F40000245CB4526462F46E1D1002308F108085B
:103F50001D4650AC1846294678E90223FCF70EFAB4
:103F6000444503460D46F5D1019A002A00F0D88059
:103F70000A9FDAF80440DAF80C20DAF80010DAF8D0
:103F800008003B6105F1004504F1004402F10043E3
:103F90007D617C60FB603960B860059B03F00700C1
:103FA0000DF51D7DBDE8F08F00000040FB21F93FBD
:103FB0000000F03F0000E03F0000703E704B000842
:103FC000049C00260834544433463046194674E9AC
:103FD0000223FCF7D3F9544506460B46F5D1019A66
:103FE00030461946002A4FD00A9803F10044324661
:103FF00044600660DAE90001FCF7BEF9BBF1000F8E
:1040000002460B460DDD012410461946FAE902234B
:10401000FCF7B4F90134A34502460B46F4DA0199E2
:1040200009B103F1004319460A9B1046C3E9020196
:10403000059B03F007000DF51D7DBDE8F08F049B87
:10404000002208339A441346104619467AE902239F
:10405000FCF794F90BF1FF3BBBF1FF3F02460B4627
:10406000F2D1019909B103F1004319460A9B1046A8
:10407000C3E90001059B03F007000DF51D7DBDE8B8
:10408000F08F00260027F1E60A9B3246C3E90001C3
:104090000B46DAE90001FCF76FF9BBF1000F0246AD
:1040A0000B46B0DC19460A9B1046C3E90201BFE784
:1040B000089BCDF814905A4230463946CDF804801A
:1040C00000F0A6F900222C4B06460F46FCF794FDA3
:1040D000002840D00022294B30463946FCF700FB2F
:1040E000FCF79EFD0446FCF795FA0022224BFCF7F4
:1040F000F7FA0B46024639463046FCF73DF9FCF725
:104100008FFD089B183305F1010B089310AB43F8A2
:10411000250043F82B4050E6012392E500244DE5AD
:1041200018462946DAE90023DAE902450A9FC7E979
:104130000401C7E90023C7E902452EE7A69B032B2C
:104140003FF62BAFDFE803F0151010020DF5987A5B
:1041500000231D4608E730463946FCF761FD10ABE9
:10416000AB4643F8250028E6002633460DF5987A3D
:1041700035E70022134674E7000070410000703EEE
:104180002DE9F04F21F00046B6F1795F85B00C467D
:1041900090469946054604DAFCF742FD002800F0F7
:1041A00085802A46234628462146FCF799FA06468A
:1041B0000F4602460B4628462146FCF791FA3EA3DD
:1041C000D3E9002382468B4630463946FCF788FA0D
:1041D0003BA3D3E90023FCF7CFF832463B46FCF77C
:1041E0007FFA39A3D3E90023FCF7C8F832463B46EF
:1041F000FCF776FA36A3D3E90023FCF7BDF8324684
:104200003B46FCF76DFA34A3D3E90023FCF7B6F87C
:104210000E9BCDE900019BB30022334B404649463B
:10422000FCF75EFADDE90023CDE90201504659466C
:10423000FCF756FA02460B46DDE90201FCF79CF852
:1042400032463B46FCF74CFA42464B46FCF794F8A4
:1042500023A3D3E9002306460F4650465946FCF7F0
:104260003FFA02460B4630463946FCF787F80246CD
:104270000B4628462146FCF77FF805B0BDE8F08FD5
:1042800002460B4630463946FCF72AFA14A3D3E916
:104290000023FCF771F852465B46FCF721FA2A46E8
:1042A0002346FCF76BF805B0BDE8F08F28462146A1
:1042B00005B0BDE8F08F00BF7CD5CF5A3AD9E53DB7
:1042C000EB9C2B8AE6E55A3E7DFEB157E31DC73EC7
:1042D000D561C119A0012A3FA6F810111111813F23
:1042E000495555555555C53F0000E03F00000000B9
:1042F00021F00041704700BF0000000000000000F6
:10430000C1F30A522DE9F843A2F2FF36132E0B46F1
:104310000D460446884607461CDC002E3FDB3A4A21
:1043200042FA06F901EA09020243864617D034A38D
:10433000D3E90023FCF722F800220023FCF766FCF7
:1043400020B1002D40DB28EA090500273846294620
:10435000BDE8F883332E06DDB6F5806F2FD02046FA
:104360001946BDE8F883A2F213424FF0FF3929FA4B
:1043700002F910EA090FF2D021A3D3E90023FBF7D9
:10438000FDFF00220023FCF741FC0028DED0002DB9
:1043900020DB454627EA090738462946D8E718A30F
:1043A000D3E90023FBF7EAFF00220023FCF72EFCF1
:1043B0000028CBD0002D18DB00273D46C6E702467B
:1043C0000B46FBF7DBFFCCE74FF4801343FA06F60E
:1043D000B044B8E7142E10D00123C6F1340603FA16
:1043E00006F6371928BF9844D3E725F00042074B5B
:1043F000224318BF1D460027A8E705F10108C8E7BA
:104400009C7500883CE4377EFFFF0F000000F0BF82
:10441000F8B5C1F30A5604460D460B46174606BBCF
:1044200021F00043034325D00022354BFCF758F917
:10443000344A974204460D460B462ADBC1F30A561E
:10444000363E3E4440F2FE72964228DC002E12DDDB
:1044500023F0FF4323F4E00343EA065520462946B0
:10446000F8BD40F2FF729642EBD102460B46FBF7D5
:1044700085FFF8BDF8BD16F1350F1DDA4CF250334B
:104480009F4222462B4625DC19A1D1E9000100F00C
:104490003FF817A3D3E90023FCF722F9F8BD224621
:1044A0002B4615A1D1E9000100F032F812A3D3E99F
:1044B0000023FCF715F9F8BD23F0FF4323F4E003D4
:1044C000363643EA06552046294600220E4BFCF7B5
:1044D00007F9F8BD08A1D1E9000100F019F806A319
:1044E000D3E90023FCF7FCF8F8BD00BFAFF3008070
:1044F00059F3F8C21F6EA5019C7500883CE4377E15
:1045000000005043B03CFFFF0000903C0000000062
:1045100003F0004321F0004242EA0301704700BF6C
:1045200069646C65000000000000000000000000ED
:104530006D61696E00168911040444080C1014188A
:10454000001C1D1E1F0000000000000000000000F5
:10455000000000000000000000000000000000005B
:10456000000000000000000000000000000000004B
:10457000010000000000000000000000000000003A
:10458000106002400860024000000B0028600240FA
:104590000860024006010C004060024008600240D2
:1045A00010020D00586002400860024016030E0021
:1045B000706002400C60024000040F0088600240FE
:1045C0000C60024006051000A06002400C60024032
:1045D00010061100B86002400C60024016072F0060
:1045E0001064024008640240000838002864024059
:1045F0000864024006093900406402400864024031
:10460000100A3A005864024008640240160B3B004E
:10461000706402400C640240000C3C00886402405C
:104620000C640240060D4400A06402400C64024089
:10463000100E4500B86402400C640240160F46009C
:1046400080000000400100000300000000000000A6
:104650007573625F6C6C645F70756D700000000054
:1046600000000000B1160008E1190008C11A000896
:1046700040004000580C0020580C002001000000B1
:104680006C0C002000000000000000000000000092
:1046900000AAA02A00000000FFABFFFF5400014069
:1046A000FFFF00000000565500AA0A008020080005
:1046B00040020000FFFFFFFF15455155FFFF0000BE
:1046C0000000000440000000018020020000000003
:1046D000FFFFFFFF54154554FFFF0000000000607E
:1046E000000606000001005500000000FFFFFFFF6C
:1046F00055505500FF0F00000000000000000000B2
:104700004000000000000000FFFFFFFF000000006D
:10471000FFFF00000000000000000000000000009B
:1047200000000000FFFFFFFF00000000FFFF00008F
:104730000000000000000000000000000000000079
:10474000FFFFFFFF00000000FFFF0000000000006F
:10475000000000000000000000000000FFFFFFFF5D
:1047600000000000FFFF000000000000000000004B
:104770000000000000000000FFFFFFFF000000003D
:10478000FFFF00000000000000000000000000002B
:1047900003000000000000002132000800000000BB
:1047A00014000000740C0020000000000100000054
:1047B00000000000000000000000000000000000F9
:1047C00009029900040100A0FA0904000002FF5D3B
:1047D00001001121000101258114000000001301D6
:1047E00008000007058103200004070501032000DD
:1047F000080904010004FF5D03001B210001010101
:104800008240010220168300000000000016030011
:1048100000000000000705820320000207050203D4
:104820002000040705830320004007050303200040
:10483000100904020001FF5D0200092111010001BD
:10484000222A00070584032000100904030000FF4A
:10485000FD130406410001010300000000000000F8
:104860000403090400000000000000000000000034
:104870001200000090490008000000000000000045
:1048800003000000000000000000000041320008AA
:104890000000000000000000880C00200100000063
:1048A0000000000000000000000000000000000008
:1048B0001003310031003700420038003500340069
:1048C00010035500530042002000480049004400F6
:1048D00004000000604800082E0000003049000875
:1048E000160000000049000810000000B048000851
:1048F00010000000C0480008000000000000000098
:10490000160343006F006E00740072006F006C00AD
:104910006C00650072000000000000000000000054
:10492000E13000088130000861310008000000001B
:104930002E03A9004D006900630072006F00730030
:104940006F0066007400200043006F00720070006A
:104950006F0072006100740069006F006E0000005B
:1049600005010905A101A1000501093009311581E1
:10497000257F75089502810205091901290815008E
:104980002501750195088102C0C0000000000000EB
:1049900012010002FFFFFF405E048E0214010102BB
:1049A0000301000000000000000000000000000003
:1049B00099000000C047000800000000000000004F
:1049C0002A0000006049000800000000000000000C
:1049D000FB21F93FFB2109407CD91240FB21194002
:1049E0007A6A1F407CD92240BBFD2540FB2129402B
:1049F0003A462C407A6A2F405C4731407CD932409D
:104A00009C6B3440BBFD3540DB8F3740FB21394088
:104A10001BB43A403A463C405AD83D407A6A3F403F
:104A20004C7E40405C4741406C1042407CD9424043
:104A30008CA243409C6B4440AC344540BBFD454098
:104A4000CBC64640DB8F4740EB584840FB214940EE
:104A500083F9A200444E6E00FC291500D1572700AF
:104A6000DD34F50062DBC0003C99950041904300C5
:104A70006351FE00BBDEAB00B761C5003A6E240097
:104A8000D24D42004906E00009EA2E001C92D100F6
:104A9000EB1DFE0029B11C00E83EA700F5358200A1
:104AA00044BB2E009CE98400B4267000417E5F0068
:104AB000D6913900538339009CF439008B5F840010
:104AC00028F9BD00F81F3B00DEFF97000F98050096
:104AD000112FEF000A5A8B006D1F6D00CF7E36003C
:104AE00009CB2700464FB7009E663F002DEA5F00C6
:104AF000BA277500E5EBC7003D7BF100F7390700E9
:104B000092528A00FB6BEA001FB15F00085D8D00C6
:104B1000300356007BFC4600F0AB6B0020BCCF009E
:104B200036F49A00E3A91D005E619100081BE600BF
:104B300085996500A0145F008D40680080D8FF0053
:104B400027734D0006063100CA561500C9A8730028
:104B50007BE260006B8CC0000000000000000000E1
:104B60000200000003000000040000000600000036
:104B700000000040FB21F93F000000002D44743E7E
:104B8000000000809846F83C0000006051CC783B63
:104B900000000080831BF0390000004020257A3897
:104BA000000000802282E336000000001DF369351A
:104BB00000140000000000000000000000000000E1
:044BC00000000000F1
:0400000508000C9152
:00000001FF
